:100000000C943B100C9458100C9458100C945810ED
:100010000C9458100C9458100C9458100C945810C0
:100020000C94A2120C9458100C9458100C94581064
:100030000C9458100C9439120C9458100C945810BD
:100040000C94B1120C9458100C9458100C94581035
:100050000C9458100C9458100C9458100C94581080
:100060000C9458100C9458100C9458100C94581070
:100070000C9458100C9458107352534B31623766DD
:100080004938554646314F786F744E7851714F4E0E
:10009000436730654A6371744B68636663326476A4
:1000A0002B366E415A434C564241712B6C6B2F37A5
:1000B0004A55776446395732532F4766316D6E542F
:1000C00038507039616A462F4B7046536773563605
:1000D00046314F32726C4D30526A4E2B626A2F3469
:1000E00072594A422F50372F6F3432615458713948
:1000F000676B4638766C2F7A6162476E51747378FD
:10010000694231784B544B5A5848644562354555DD
:100110007872722B73714D4E6C704A716545616ACD
:10012000516155744279564F3633416248505236C8
:10013000386630426B5736335379417A69443466B6
:1001400048776F6D586C58324E35357365787452F8
:100150007541583962784655357170323967466352
:1001600034696733697238446B55315A50626A6337
:100170006F67696E6A357352386D71466F464850C5
:10018000424C5767374E4D624D5A2B416F5558714F
:100190006B2B72346D337A424F7035462B52464288
:1001A0002B467475627A36375747664B4F376A6904
:1001B000454C7679556654365A434C524163496BE7
:1001C0002F366646456F76576E79736464564235AE
:1001D0006E372F643743784E6642356E766E474AE7
:1001E0006B53447973545A384C70397A71464C4D7C
:1001F000632F6C4B5558355168444B4E5A52435AF5
:100200004E795054303963737141774F37694642A4
:1002100054625A5A34497243715968454A304835D4
:100220002F545952534C5A5562702B4843434941FD
:100230007A7764427A7A7442576A3666745A5757A4
:1002400062666D67396D6930664B304B6F3535507E
:10025000585234584D41765A6C746A73304951681B
:10026000796E61377035784F41552F374230776D51
:1002700045395732572F456B46675A424B416752B3
:1002800033523244794E7254495958474B78486238
:100290004A506E7234417164684D6546564C3679E9
:1002A000546F42706F7A737A566265545753425452
:1002B00035424654513647666A33676744465A7931
:1002C00070552F3235786D36515674505A2F7461EF
:1002D0004D63476A69654C4E767251796E556F4928
:1002E000414D6E42754F4C767236535953446754A4
:1002F00055666E3770597A475A473371636D617A24
:1003000067683650484E47305861304B6768345004
:1003100033444645705648306662324378727A6597
:100320003643764A76397A75384B65506E4A45556C
:100330006A63552B6D424E56385876684B35624C81
:10034000766F42417039426F4D35724E7664307926
:10035000486C436F30326F31775750747256583251
:10036000664F45736B637535423444415A3744597F
:10037000617A61626C70524B4973356E6147767079
:100380004C78514B417437764C4D6B34473435487B
:1003900065474E743758566D744156657141745AAD
:1003A000643768634B5A655845466633494D2B3769
:1003B000427478754D45642F5A4F327130726262C3
:1003C000746F54435A757A322F4B474D77654F748B
:1003D0006A55562B4F454E393558466B4E526E5125
:1003E000372F54362B694952553670566362754221
:1003F0006D30346E79447442653735663943564FF3
:1004000049453937357178574C4D6D34322B373378
:10041000494D2B37427478754D4D632F52483169E1
:1004200074675143427478754D45642F5A4F30714B
:100430006B68594C336A43597932597A516E362F69
:100440004246317950734267743167736B55763524
:100450004A3542494978494A5843795779446E6147
:100460005A7A414343345A5A6632497251614C5266
:100470004D78714E6E63323632724A5A647A6763CF
:100480006930662F49633061476C494A5436547964
:10049000626D69553365304B6B6861726D42416FB7
:1004A00067734C6871316172443968734E7874684F
:1004B0006337727474646D41334F7A47654748738C
:1004C000635476424F7836506D4A45556A73574F9C
:1004D0003244503175562F447049373375594D6445
:1004E00031656D6F557971566B6373355236425174
:1004F0004C4A524B4A733545614F754B6A385242EC
:100500007467536852767A6465474E4F6262574704
:10051000784431434A73786D4E45562B754150648B
:1005200074646B776E30776D464E55326E42485527
:1005300062625747784C3243526E772B6D4A4F5662
:100540004559735A312B6830505A32537A6A69636D
:1005500053616350334448453566456B46596D5980
:1005600053365A546375627A496B366E69427452D7
:1005700038336F395253484D59544E462B662B6AC7
:10058000436C6F745461574F774439442B694B5215
:10059000457771466D632B376870784F70412F62D5
:1005A0004E555369316A51616968714E48593061DD
:1005B000436C6F745461574F77442F44756F4C42AE
:1005C0004F783650484648302F583369396953536D
:1005D000546E6738475938623172546136696F56C4
:1005E0003057767072315371306A5962317254618A
:1005F000366971566C387535426F426F4A354267BD
:1006000049704A682B667A2B2B43504E505A32530E
:1006100054766A382B662B6A69686F4E335733718C
:1006200038715A54636D597A7772356664475675D6
:10063000734963665650556D6C42585762476C6FEC
:10064000733972744C5A5557444E6B776E38786DC7
:100650004E45562B7541506474646D7758797757C1
:1006600044466C77763179755550656E694276529D
:1006700073316F745461574F774C384432724A5A11
:10068000643768634B5A6358304C6548474E4D3168
:1006900051534E4E2F66306945315371304461627B
:1006A0006C70544B347137584D4D632F784433433D
:1006B0003569775744466E77667A7765694A73522B
:1006C000302B7231495250567356747834334B354F
:1006D0006830416746776945786545734559755A6D
:1006E00046346A453566476B31576E6F63377064C1
:1006F00039666B6746776945786545734551745A25
:10070000392F68384F522F544D6B616A437470749F
:10071000626255476842335362756A302F583169B7
:100720004E6B5369566E51366D704C4A5052774F2E
:10073000685A3854306A61626C68534B776A36661F
:1007400045645732587645416C556C634F35377266
:10075000764148636162634857504D6C535364500F
:100760002F43484D595450464F522F54736761449C
:100770006D704A4A2F2F782B75494D6431656B6F28
:100780006B38706C3658666E4B4D753568384467FB
:1007900064376A63615464482B4B4D4E586132692B
:1007A0005176355835433169496B34505350754A49
:1007B0006A38624C7159707965542F304F6B4B57C2
:1007C00069386255716F72794F4A2B6B4646597280
:1007D0007A6A676343516466644F5575454E633367
:1007E0005150386A7A7272644E706B7744775169EF
:1007F000426C794F5550654869427478637272391A
:100800004D356D5154365453626D69305871324BC9
:10081000787237364E4558622B43506F4F42313312
:100820004C4D6A6B39666B676C386A6B64546C410B
:100830007031416F6B38726C716463335148396A3F
:10084000616D713167554E395A5446454A52485583
:100850003766576D314458473543334B3469365802
:100860006B4266584D4D632F784C30436868774F24
:10087000414E387A776A3466314458473543334BB2
:10088000347137584D4D652F684A32535458673884
:10089000485938763172547536696F6855617339C5
:1008A000332B7A436647485963627378322B354855
:1008B00059472F624C6B695556616D3452794968BE
:1008C000554B7256735676786F394C704C35544B85
:1008D000596D363341462F7A496B366E434E7378E5
:1008E00077324B78417749425779345830446648DB
:1008F00075414E6464546E415A7A43597932597A3B
:100900007772376674495765535075686A30616A03
:10091000695A7235505A306D6A706A34352F4D52AB
:10092000794F63767A4C6D417832437758367857F1
:1009300072416C594B35624C76674341782B427754
:1009400050357A4F3443394C2F6943515436545300
:10095000626D69305853314B6F6F37484F4D4D3989
:100960005253484D59624F4647512F624E6B53695F
:10097000566E513647744A70627A5361536E7139BC
:10098000425945636955642F354B304B677035507C
:100990002F4B454D67634F39425148633658666E59
:1009A0007149735A56366A553766556D6C4A5557B4
:1009B0006A786E51362F54362B714A52647A6F64BE
:1009C00056696E6A342F4C534A35426A70564B430F
:1009D000446751436868774F414E2B7A416C3676B5
:1009E00044466C77763177756B4A65586B4A655823
:1009F0004546643359472F72726F6A453558466BC6
:100A000074646D775836785772416C5971315972E8
:100A1000546E673847592B62466C5371556E59377F
:100A2000787278657149735A567969555461554F92
:100A3000414E2B7A416C36766A426C51723151715B
:100A4000456C597254766A38655439442B714C524E
:100A50004D35724E50523353377168554C5A555775
:100A60006A356B51433452434A6B796D314C574769
:100A7000525030696C68534B776A3666464E57322F
:100A80005850456B46516C594B78614C6E684149E2
:100A900041344C424F353750764947635353665083
:100AA000765146634C356530454E6355774C386713
:100AB00032724C364E356A7659544E6D66443967FB
:100AC0002B4B4A52633772644E5A6B516A385469E1
:100AD000646D5379336A435953365A54636D617A5E
:100AE0004174357637436C496F314B7044775143CD
:100AF0006868794F51502B6A43747274726455322E
:100B0000484648302F6630694674547138695954E4
:100B100055765A375A75783276494763535364503D
:100B2000664746734D5A75526B38706C3666656E03
:100B3000434E757867384A68363361376868774F4F
:100B400067422F5473675944576E493552364451A2
:100B50003766523676774B426D30366E6942765242
:100B600073316F745453584F3569394C2F7941475D
:100B7000443452554A3077776B70556D6A4A6B67CB
:100B80006A3051536C7054363469346E5550655820
:100B90006A527668736470743766556D6C4A55573F
:100BA000444E6D775836785772496D595379615470
:100BB000456C61726A68674D6755503970564630AA
:100BC000505A3053446C69735553764A5035784FB8
:100BD0006F493862566E533632724A5A392F6A3824
:100BE0002B582F6A7167714647592B626C70524BB4
:100BF0004973356E364B734A58367A57374B6B49C3
:100C0000673049687932617A4174357662476C6F32
:100C100073397274725658322F43484D59624D469B
:100C200057532F4C76494441346E41346D30346E05
:100C3000535075686938626A716751465761474C0D
:100C40006E683649517979526B38546C71646B33E4
:100C500077443944656D4B78673077687932697AC3
:100C6000677042502F43394D6F56314659623231C9
:100C7000476F47726B686F4B416C4376444E6577A4
:100C8000587979577A446E415A7A4359537959546D
:100C9000306A596256485336582F4C4A4A354234C6
:100CA0006F394C5A716C5161454E5A72626D6930A0
:100CB0005853334B346936584546643359472F727D
:100CC0004C73686B74646D77332B78327649456367
:100CD0006955642F5A4F302F6B68596558764274A6
:100CE0004F78346133444852593745524134456353
:100CF000693063315A474D674D7369704B6B52765B
:100D000053536D464F453832756C487A6F67434888
:100D1000474650316F564E313466306C53616B50DC
:100D20005850386B6C556E3465373566644F57755F
:100D3000304466484F4D4D3978654773306575705E
:100D40006A3051696C35544B5A473448774C2B7A8A
:100D5000476C77707A2B7279666D3677332B4A320F
:100D6000504D383847513962397154533769695594
:100D70005453584F59473972377162553766736DFE
:100D80006C4274577249655953796954456C617264
:100D90006A706A4D59624D4657612B4C6E684137F7
:100DA00068557753537168546375687A3471445841
:100DB0004D4D6B2F52484E69746753435258792BEF
:100DC00058504D5353536C342F433937495A335687
:100DD0006B5575354A35434934334C356873436731
:100DE0006354616379576E7672496D5953365A541C
:100DF00038696154456C61724474687373647578C2
:100E000067304968792B627A496B366E694A755248
:100E10006B38706C6154664875494D6431576E6F1C
:100E2000633772644E526E51623754613671705638
:100E30003858746861375A6264755279506B4167EB
:100E4000467769455261474D77573374725674320D
:100E5000504D2B38326545727A6A596343516E663C
:100E600074415865614F75706A3870694E63726974
:100E7000636D7079486C356F6B30726C6963662F87
:100E8000684230534B6B6A6B316D646F73315174D0
:100E90005461574F5150386A537672394A52465509
:100EA0004C5A75577A4464417039376F3833513929
:100EB0005161384D416733467464636F48347A65D5
:100EC0005A4733793869594C317A6144454E5471E7
:100ED0006357596277724433744973324346565AA2
:100EE000342F7A526F743741386652395A62384516
:100EF0004259456343516666744156654B457635A4
:100F00007039426F4D35704E665431434A73786D77
:100F10007449576553507568437761446D68494A11
:100F200033327732477445306E4D33365776493514
:100F3000353342346D38346E364B744A33324B326B
:100F40005848396B4E5A65517A2B727966754477D9
:100F50002F2F4B2B2B4B314E5861504B516E422F44
:100F600052664E6945466F71456C69726A68674D95
:100F700041594D6431576C6F733972744C5A5557DF
:100F80006A426C514C35544B347135583843665075
:100F9000504D45386D632B374274787573416466E4
:100FA0003853564F6F6F3963316A5464796A706190
:100FB00031656C766B3871694B5A63585548646E6D
:100FC000364B754A6E30776D4656563275674762B6
:100FD000615465414F4D5036425145624B5A6651FE
:100FE0006B356451314C63485750326C69556E2FE4
:100FF00070414E61716F70462B58486A7167514657
:101000005753464C2F713751372F72362B69774A19
:10101000302B72744952504E7364737077474B7023
:1010200042344A422B2F372F4A4531364F6B4B689B
:1010300069385A6A616D6F317757507472565832F9
:101040002F43484D59624F466D55394C5A75784774
:10105000764146734B52646E632B6566694A6B51E9
:101060006A3852694E73546964755279766F424199
:101070004968434977574A68772B49685937494A3D
:10108000392F67734F4A2F4446465A735476613757
:10109000656246455850772B35763734657A346625
:1010A000562F736D6B4A736D4446644176314965C2
:1010B0006B426E6E73496D76457473474864383081
:1010C000485133616175703134664F6C43346566E5
:1010D00045565575504D486B57532B5450734334F8
:1010E000643767454C4A6450306A644865475074B9
:1010F00072565632504D473832572F7272676745D5
:10110000425945636955642F354B304B67683650FB
:10111000484E47305853334B34713558384B635031
:101120005776476B31476D6F382F71394A5A46559C
:101130006A55552B75674F64734E6D7733324B325A
:1011400058502B6B3157646F4D78714E6E634D362E
:10115000476C7970443470434A6B496D6C427457E4
:101160007249635943775944576E4935783243770A
:1011700033477932324C46414259465943516362B2
:10118000644F56716B4265544E73643752583369DD
:1011900064755479666D4377333279325866456B9E
:1011A00045346B6F43346A7A756779786D3043588C
:1011B00069425668392F544E706C2F302F5833695E
:1011C000646D6F79486C366F302B523159623246FC
:1011D00047594562316A71615376523935582F6BE0
:1011E00039666B6746346A455A5446454A524655F5
:1011F000726455326E4A4555445156657149755A67
:101200006C45696B55616D6F514B4C7874397274D4
:10121000726457325850476B31576E6F38336F399D
:1012200078574673736473787732497851364C52E5
:101230004D786F4E3357337138715A54386967544B
:1012400030726839647570557667346D6838354723
:101250004D786171517130345853332F595743438E
:10126000424E477A676843506E4A2B555453584F45
:10127000594F2B726A706A4D3458506C4B5A6358F0
:101280005548666E7149755A6C30676B6C5564349D
:10129000753944767249635943346844656D797889
:1012A00042594A422B7634733543325A5A2B346BA7
:1012B00059752B72447468734D7057526C30516479
:1012C00079656B587A6A64344968344941347A42A2
:1012D000753141767A446E41353341346D30366E26
:1012E000694A5752453452462B58486A71675146ED
:1012F0005753484C506B3667567967556A63752B60
:101300005750306C53616D50484648302F58336900
:1013100064755279506B4367555367556A38554F1A
:10132000486C50316F464E45352F4F6C43596566BA
:101330004646563275414863616A6633754150745A
:1013400074566E412F33774F6D704D6C312B757025
:10135000696354336475526E766F425670394439FE
:10136000382F706F5A62452F4259476E795764552E
:10137000374B6D7A52614A7139586F39523645731D
:1013800067634D647857464D4D5A7378567953319B
:101390004677585A4D356271345833444B5A6B78FE
:1013A00055506B42537657486A736A544C73725661
:1013B0004B706358304C6D48474E3031776532740E
:1013C000445157623643754D5035774C6F492F6500
:1013D0006B4A5350343637584D556C2F596D4D3636
:1013E00073516854336A795A6C38626B63626B412B
:1013F0006845356C463461423558386874566331F7
:10140000764E79726447667672416C59725659729B
:101410007A4C674D4C356558454E63337772474477
:101420004839773562376F4B4B6B523153616C667D
:10143000336A45556F3146304F78314B4C736A38BB
:1014400039666B346C3868387446666F2B58492B94
:101450006D4A32564551745A643768634B5A655821
:101460006B4266584D45642F5A4731717367594432
:1014700057764A35596A4359796562494A30346327
:10148000797275426E6B346E537657626A6B615A2D
:10149000434E70743766576D5566556D6C68587558
:1014A00061656D5155617056635474422B2F352F11
:1014B0003543334B347137584D4D652F68423353A4
:1014C00062756830765631797659444134334344F5
:1014D000574B357339436650503845386E63393849
:1014E000786A7A5A5333736D627A61626C68514BD1
:1014F0006768345033442F455A37384541412B4BA8
:10150000363365787251565A392F5A387556467A9D
:10151000343637584E736636424E3333336A376447
:1015200053366757636D6A32417436714C4563397F
:10153000753142715448656C392F6A7065542F5764
:101540004F6B496853366A547367686A334C4A5A1A
:101550003976616E2F332B347134704665544644AE
:101560002F4B7852636A53466C55646776644233F6
:10157000375364494935784A2F2F4C2B65473374CC
:10158000714E753233723958425138504C4263456E
:101590006375643879626C546855436756366A558A
:1015A0003758766D644F7575304C6548484E4F31ED
:1015B000676B4F754A5A48487965563945316633E5
:1015C0006F4945623172706171676F46327538726A
:1015D00053766930656A384C666D79786745776807
:1015E00054796A624574676A62576A385761304B4A
:1015F000416C367644466E772F33792B326A4E46ED
:1016000066442F7A4F734C5271395A6237716A6B44
:10161000372F5557457455326D6846787264555466
:10162000485646524F3532537A6A67634359636668
:101630005650574756485847394B5775774C386A74
:1016400057764C357031416F45346F54656245446F
:1016500032727A5A4D5A6A4D594430662F2F2F35BF
:101660004339527462627547777230434239793731
:10167000396965615063473832572F72726759452F
:1016800067452F38657A4672656D775A772B7A5A97
:101690006F317942696B514B46465171456C5972B5
:1016A0007A6A676343596D66454676322F362F63F3
:1016B00078654E395471764A52482B6B4C45716CA3
:1016C00044596458565076753137764F774C5042AE
:1016D00078624B64624F58366A4D71783871705336
:1016E0007267594542512F6361626D486D4A3056A9
:1016F0005553564A667A7765434676786F564B70EF
:10170000436F525670677952527630314546537165
:101710005648616568687772675A2B326C42624935
:101720006E68444C51694C536C63706C3666636EE2
:101730005350756869305A6879726F2F64626D41D1
:10174000523643516237514F71677052326547725A
:10175000434E5A73734E585768634947366E615209
:1017600042744C4539716D6C6E52394D72565675D6
:101770004F73456B474147387467706C414E774AE9
:101780004D55642F5A4F3271306A59623037546167
:10179000614F6F7835484D686137634833624D4615
:1017A0005779386A2B7942344351534378547865DA
:1017B000434E747878324C7841414B786D383758C5
:1017C00071417470647A69737A65656669706D5188
:1017D00053365236726769735271476B52534D4B91
:1017E000666233465266793566475064725656478C
:1017F0005030464D50522B524D73616871597148AB
:1018000050782F5474775972326A497856616A3821
:101810006144564770493061437470746254744730
:1018200070493261796A71646C4D6D343357376E2B
:10183000674247444D6B5A7A7972514E6444655100
:10184000345836343232352F7744384C656D4B7806
:1018500041344C424F35344C664F47735553764AAA
:1018600076397A7539716550485646457656334310
:101870002F69436754365469364B686B724655532B
:10188000756F463443496366314458475A4F307147
:10189000456C59727A6A69637957667672416C59F8
:1018A000723161726A526A4978654E705469584F54
:1018B000594F2B7244746A7339587468614C614C87
:1018C000746754537872794F3643575A76314A2B9E
:1018D0006B4A66484546636E344B39625866436FBF
:1018E0002F33353252333272636D5379336A435931
:1018F0007957617A4231357254766E6B307568452E
:10190000765633432F69436754365469624F6845AE
:101910004F7833533643696B5453562B6F492B72B0
:101920006C7052366F34373350734F61685546626E
:1019300075643855776A3434315456686F6731614D
:10194000716F72314F522F6A4D735A6A616D6F31E8
:1019500077574E743633586D64655670466C6377AE
:1019600059572F724C736A6B382F6B676C736A45CB
:1019700064546C674A35446F597A773530656255DF
:1019800066444E434A6B796D306257475276314315
:101990006C685271423936504C736C786D303775C3
:1019A0006A5275594D526F4E5853314B4A73356ECA
:1019B000612B7668693851714E635269746751437F
:1019C0006868774F67423954636D617A6770355044
:1019D0002F792F4D3566334369736E59674A5046E8
:1019E0007A62674C72566B67347938636575356E09
:1019F00050784B5A512F2B3044466F747947564CD0
:101A000073416E3674497337694A75306C38724168
:101A10004B706558454664333543394C2F6134610A
:101A2000717451677341594432724A5A643768631A
:101A30004B5A635830446648505550397031476BA3
:101A4000657A3253357979577A4C6B414234424149
:101A50006F64426F73746F343766567A4646556AC0
:101A6000504547702B66393253766F6F356646782E
:101A70006C736C746E30346E535075684377674482
:101A8000576E79356773426774565A736B55733561
:101A90003533423447773748474E4F3141515064D0
:101AA0004E52664437767270664F79786F39777028
:101AB000373370366D684C4A6E45786D6B425657B9
:101AC0004C456E34667A4166562F753131447656F0
:101AD0003453335A344344666C70666645646333EA
:101AE000774C454432727A5A743962453866554AA1
:101AF000533668373843673731376862646D7179B8
:101B000058663534507844666D4A46454467566594
:101B10004B4576357031436F566953566B3057716C
:101B2000495A34624968774A326578327651397356
:101B30004B5A656E454E634877622B7A484E4A7021
:101B4000372F723665757A786F31797044497043F2
:101B50006F674B3252504D53466C716155765A4CFB
:101B6000593279475876456B6C636D34335734334B
:101B7000516639725333723141774663714E633324
:101B800078722F546D4A4B5A75567975566E656E3C
:101B90004B4D763568634167736C67584567746968
:101BA000637A676343516466394B554F674A2B54D8
:101BB0006C355A4C664F41724F5A795659573972A3
:101BC000626D67306E55333665754A7834337935D2
:101BD00042673641515336717A6552497577354BB4
:101BE0004249364B596237596272675239715359BB
:101BF000375362655361754F774446442B694952A8
:101C0000302B72314A4A4F566B30744A352F424955
:101C10007531366644466C4150354A7249554665C1
:101C20005947494F486C464D4F4231534C4D686BB4
:101C3000734E6E315879785444396C314734782B6F
:101C40007041316972676F39327538727A726863C0
:101C500071566433344B2B4C6E684349776D4A366A
:101C600052534952557970515543734D2B58792B26
:101C70005748506C7164633351482F6A7151534611
:101C80006E63475442744A47734166337441563217
:101C90004C5574525A544359792B5A7A34693658F0
:101CA000454E6333774439446647497877754936FA
:101CB00059624953636A6963535364502F4B2B4DE8
:101CC00077573374726455326E4246554C525657AC
:101CD0004C4D6D34322B3533592B38725376697332
:101CE0006644385465474B7868554B6843675A4497
:101CF00057487A35416736417832347748344C4713
:101D00005A4731714D6B696A437452746262554728
:101D100042463179766F44413533416747343766FF
:101D20004F6B506C6F4647552F663143467453795D
:101D30003936614C4D4D5A6A36717056636257425E
:101D4000485143486D5A32316B55565A5A7A41348C
:101D500069305944545070643548486B64726B4123
:101D6000413441567039433963375149646266568C
:101D7000523641464C78526641743576374B6D4940
:101D800051364A52386E71396730477666372F516F
:101D90006D424A54575377576A426C514C35524BF7
:101DA000496B436E694A57526B30516C53616550B1
:101DB0006E4A47557A65577530446448654F4F748D
:101DC000694D552B476C4F3149524F564D52755204
:101DD0004E78544E48674E6171676F465761384C74
:101DE000336A36597932677A516E412F52503069D1
:101DF0006C70524B6F49374850634E3152534745D0
:101E000034584E6C3666656E4346767849354C4A92
:101E10004F52774F67353954563361376868794F79
:101E2000775446442F4B7842637A514E3165633480
:101E30004549725650522F547367594457504C3588
:101E4000497043505A6A4A653165683050524E5362
:101E5000726759454259386343596566464E573251
:101E60005848486B39586C6774396A73392F7568EC
:101E7000696B614C6970706C2F58334B632B5461E4
:101E8000664F427776314B7530446C482B4B324E5F
:101E900048593061436C71744459556569427652B2
:101EA00073397074617A564770593234537670665C
:101EB00035664747554B63716763786836336937D2
:101EC00068704A4F6F494562567672362B6949529F
:101ED0003032533167633039786D48736462764BC2
:101EE0004859414D65653274445973656A5A555273
:101EF0005561542B735658616F3978433766703685
:101F000050387772377667785A474B32586E486B3D
:101F100038486E496437623061546E7676414E318E
:101F2000396E6E4C392F6A582B582F4972416F7594
:101F30005743394C66754477667A79657A6273429D
:101F400058713455397163505758476739586C6721
:101F50004E78694D51614F4E6E553336656D4978F7
:101F600077324B78673049685379615445746272AF
:101F700072676745425146634B526458384B65500F
:101F8000484E45306E554E36756F7A42753134760F
:101F90007A446E415A7A4359792B5A7A34693458C3
:101FA000556E666E4C637435517141514C5A524BAB
:101FB0006F6F35482B4B4D4E5769334B3553365861
:101FC000463963335233396A6257713168734D3918
:101FD0005171474D52694E4E2B76326930545361E0
:101FE000546670395972454567734738337538728E
:101FF0005358693833752B72435667734667745A62
:1020000038506838507038543154596230545161E6
:102010006A52714E4767336162577131426F4D6446
:10202000306D6C6F4E426F4E326D31714E63626A2D
:1020300072597246766C397A35533458562F636E1E
:10204000542F736854435954565861374164787516
:10205000743465666B35555743396D77574B7857F0
:102060004B306C34504A35502B36454D686B5039E7
:102070006F744730000011241FBECFEFCDBFDFE3E8
:10208000DEBF18E3A0E0B8E3E6EAF9E202C005909B
:102090000D92A430B107D9F728E3A4E0B8E301C05A
:1020A0001D92AB31B207E1F70E94CB120C94911450
:1020B0000C9400009091040895FFFCCF80930208D7
:1020C000089583E20E945A1081E40E945A1083E42A
:1020D0000E945A108BE40E945A108AE00C945A1005
:1020E00083E20E945A108EE40E945A1081E40E94FA
:1020F0005A1083E40E945A108BE40E945A108AE01E
:102100000C945A10CF938091040887FF10C08091DF
:1021100000082091193830911A3822303105C1F168
:1021200040F42115310531F12130310561F1CF91B4
:1021300008952330310509F448C024303105B9F73A
:1021400020911738309118382230310581F790915D
:102150001638E6E9F9EADF0120E03D913917D1F1BF
:102160002F5F2031D1F70E94701010921938109211
:102170001A38DDCF8C35D9F681E090E0809319389C
:1021800090931A38D4CF8C3581F782E090E0F6CF67
:102190008337B1F48091173890911838029769F419
:1021A00083E090E080931738909318381092193894
:1021B00010921A38CF910C946110CF910C9470103A
:1021C000893689F683E090E0D9CF8093163884E091
:1021D00090E0D4CFC0E090E04191042E000C550B6C
:1021E0008417950761F42295207FC20F0E94611029
:1021F0001092193810921A38C093153898CFCF5FC3
:10220000C03151F7B0CF0F931F93CF93DF93CDB76A
:10221000DEB72A97CDBFDEBF80910A3890910B3888
:10222000FC01E858FF4FE491E983FC01E758FF4FB8
:10223000E491EA83FC01E658FF4FE491EB839C01B3
:102240002C5F3F4F20930A3830930B38FC01E55840
:10225000FF4FE491EC83DE011196BE016B5F7F4F6F
:102260009D9126E539EA80E003C08F5F803451F00C
:10227000F90141919F014913F8CF9D012150310986
:10228000F90180836A177B0759F72A818981880FB2
:10229000880F922F9595959595959595890F8D8396
:1022A0008B81F0E12F0290011124982F959595953F
:1022B000290F2E8320E48202C00111249C81890F02
:1022C0008F838091003890910138A0910238B091AD
:1022D00003388B019E01285F3F4FB901582FF80149
:1022E00041918F014827F90141939F01B695A79528
:1022F0009795879550FF08C0FCE58F27F3ED9F2742
:10230000FCEBAF27F4EBBF276017710739F7809319
:10231000003890930138A0930238B0930338798540
:102320008A85688582952A96CDBFDEBFDF91CF91E1
:102330001F910F910895CF92DF92EF92FF928091BB
:1023400007382091083890910938809310382093ED
:1023500011389093123881110EC081E090E0809383
:1023600017389093183881E080930638FF90EF90EB
:10237000DF90CF900895A0911138E09112388E2F00
:102380008F70E295EF70F89494E0E99FF0011124CA
:10239000EA5DF645208131814281538104C0569522
:1023A0004795379527958A95D2F72093360A30932B
:1023B000370A69017A01F694E794D794C794C092DA
:1023C000380AD092390AB0E00E947714672F782F2C
:1023D000892F992760933A0A70933B0A7894C3CF68
:1023E00081508F30A8F4E82FF0E0E750FE4E0C94B7
:1023F00071140B120D120F12111213121512171263
:10240000091219121B121D121F122112231225125A
:102410006860862F08956B66FCCF6464FACF6164B0
:10242000F8CF6362F6CF6161F4CF6061F2CF6B6485
:10243000F0CF6160EECF6260ECCF6063EACF6C6199
:10244000E8CF6066E6CF6461E4CF6661E2CFCF9308
:10245000C82F60E882958F700E94F01180930C382D
:1024600060E08C2F8F700E94F01180930D38CF9117
:1024700008951F920F920FB60F9211242F933F933E
:102480004F935F936F937F938F939F93AF93BF937C
:10249000EF93FF938091173890911838823091050F
:1024A00009F441C08430910591F08130910539F5EE
:1024B00020910E3830910F38232BE9F110920E380D
:1024C00010920F3880910D388093C40818C0809105
:1024D000143891E0980F909314388A3080F010925D
:1024E00014388091133891E0980F9093133890919D
:1024F0001038891720F0109213380E949B1181E048
:102500008093860AFF91EF91BF91AF919F918F9138
:102510007F916F915F914F913F912F910F900FBEDF
:102520000F901F90189580910E3890910F38892B3D
:1025300029F681E090E080930E3890930F388091D7
:102540000C38C2CF1F920F920FB60F9211248F93A7
:1025500081E080930B0A8F910F900FBE0F901F9018
:1025600018951F920F920FB60F9211248F93EF932D
:10257000FF93E0E0F4E082E086838583E0ECF8E01E
:10258000838181708383FF91EF918F910F900FBEB4
:102590000F901F901895F89481E280930006109296
:1025A000010698E09093020630E23093090642E07B
:1025B00040930C0681E080930A067894F894809307
:1025C000E3052091400425602093400420912404D9
:1025D0002260209324042091200422602093200470
:1025E000209100042260209300043093C00834E05E
:1025F0003093C1088093C2082091C00821602093C5
:10260000C00878944093210480932104F894109298
:10261000000A23E32093010A40E355E74093260A8A
:102620005093270A40932A0A50932B0A1092280AA3
:102630001092290A80930A0A2091000A21602093AF
:10264000000A7894F894309321042DE635E0209325
:1026500008083093090820EC20930608789410921B
:10266000193810921A38F8941092810A21E131E158
:1026700020938C0A30938D0A8093850A8093800A78
:102680007894909314049093150490931604909367
:1026900017048FEF80930C388FE780930D381092DA
:1026A000173810921838C1E0D0E015E0812E912C37
:1026B00000E8602E04E010E080E3E82E85E7F82EC5
:1026C00092E0C92ED12C23E0A22EB12C5524539494
:1026D00080911738909118388230910509F452C0D2
:1026E000E8F4009709F449C0019791F7F894E09253
:1026F000360AF092370A1092380A1092390AE0929C
:102700003A0AF0923B0A78941092153880E00E94C1
:102710002712C0921738D0921838DACF843091053A
:1027200009F4BBC008F46BC0059791F68091063898
:10273000882351F0109206380E94031160930738E5
:1027400070930838809309387090053882B180936F
:102750000538782A782675FE04C0C0931738D093C0
:10276000183876FC0E949B1177FE43C000931738FF
:10277000109318380E949B113CC0C0931738D09317
:102780001838A6CF2091053882B180930538922F52
:10279000982B98272095807194FD509204388223BD
:1027A00031F080911006809315381092043895FF0F
:1027B00007C080911538882319F08150809315380F
:1027C00096FF07C0809115388F3F19F08F5F809377
:1027D000153897FF06C010920438A0921738B092AF
:1027E000183880910438882339F0809110060E94AF
:1027F00027120E9482106CCF80911538F8CF8091FB
:10280000153820E2829FC001112480930A389093EA
:102810000B38109206389C01220F331F820F931F32
:10282000969587959695879541E958E862E071E11C
:1028300030E020E028173907E9F44093003850933E
:10284000013860930238709303380E94031160933B
:10285000073870930838809309386092C408109242
:102860001338109214380E949B110093173810935C
:1028700018382ECFE42FE1707695679557954795D8
:10288000EE2341F0ECE54E27E3ED5E27ECEB6E27FF
:10289000E4EB7E272F5F3F4FCDCF80910638882312
:1028A00051F0109206380E9403116093073870931C
:1028B0000838809309388091053892B19093053893
:1028C000892B892787FF04C0809217389092183887
:1028D0008091103881118DCFC0931738D09318385C
:1028E00088CFEE0FFF1F0590F491E02D09940E9410
:1028F0008214A59F900DB49F900DA49F800D911DF3
:1029000011240895A29FB001B39FC001A39F700D31
:10291000811D1124911DB29F700D811D1124911DE7
:062920000895F894FFCFBA
:102926007CD90100E9BE0100D4A50100278E010073
:10293600CE770100B6620100CE4E0100033C0100D5
:10294600472A010089190100BD090100D1FA0000DA
:102956004142434445464748494A4B4C4D4E4F50E9
:102966005152535455565758595A616263646566B5
:102976006768696A6B6C6D6E6F7071727374757669
:102986007778797A303132333435363738392B2FF8
:1029960030313233343536373839616263646566CF
:0429A6009188021101
:00000001FF
